{
  "contractName": "BoxOffice",
  "abi": [
    {
      "constant": true,
      "inputs": [],
      "name": "listingFee",
      "outputs": [
        {
          "name": "",
          "type": "uint256"
        }
      ],
      "payable": false,
      "stateMutability": "view",
      "type": "function"
    },
    {
      "constant": true,
      "inputs": [],
      "name": "charity",
      "outputs": [
        {
          "name": "",
          "type": "uint256"
        }
      ],
      "payable": false,
      "stateMutability": "view",
      "type": "function"
    },
    {
      "constant": true,
      "inputs": [
        {
          "name": "",
          "type": "uint256"
        }
      ],
      "name": "films",
      "outputs": [
        {
          "name": "",
          "type": "address"
        }
      ],
      "payable": false,
      "stateMutability": "view",
      "type": "function"
    },
    {
      "constant": true,
      "inputs": [],
      "name": "kiitos",
      "outputs": [
        {
          "name": "",
          "type": "address"
        }
      ],
      "payable": false,
      "stateMutability": "view",
      "type": "function"
    },
    {
      "constant": true,
      "inputs": [],
      "name": "heartbank",
      "outputs": [
        {
          "name": "",
          "type": "uint256"
        }
      ],
      "payable": false,
      "stateMutability": "view",
      "type": "function"
    },
    {
      "constant": true,
      "inputs": [],
      "name": "withdrawFee",
      "outputs": [
        {
          "name": "",
          "type": "uint8"
        }
      ],
      "payable": false,
      "stateMutability": "view",
      "type": "function"
    },
    {
      "constant": true,
      "inputs": [],
      "name": "admin",
      "outputs": [
        {
          "name": "",
          "type": "address"
        }
      ],
      "payable": false,
      "stateMutability": "view",
      "type": "function"
    },
    {
      "inputs": [
        {
          "name": "token",
          "type": "address"
        }
      ],
      "payable": false,
      "stateMutability": "nonpayable",
      "type": "constructor"
    },
    {
      "payable": true,
      "stateMutability": "payable",
      "type": "fallback"
    },
    {
      "anonymous": false,
      "inputs": [
        {
          "indexed": false,
          "name": "movie",
          "type": "address"
        },
        {
          "indexed": false,
          "name": "salesEndDate",
          "type": "uint256"
        },
        {
          "indexed": false,
          "name": "availableTickets",
          "type": "uint256"
        },
        {
          "indexed": false,
          "name": "price",
          "type": "uint256"
        },
        {
          "indexed": false,
          "name": "ticketSupply",
          "type": "uint256"
        },
        {
          "indexed": false,
          "name": "movieName",
          "type": "string"
        },
        {
          "indexed": false,
          "name": "ticketSymbol",
          "type": "string"
        },
        {
          "indexed": false,
          "name": "logline",
          "type": "string"
        },
        {
          "indexed": false,
          "name": "poster",
          "type": "string"
        },
        {
          "indexed": false,
          "name": "trailer",
          "type": "string"
        }
      ],
      "name": "FilmCreated",
      "type": "event"
    },
    {
      "anonymous": false,
      "inputs": [
        {
          "indexed": false,
          "name": "movie",
          "type": "address"
        },
        {
          "indexed": false,
          "name": "buyer",
          "type": "address"
        },
        {
          "indexed": false,
          "name": "price",
          "type": "uint256"
        },
        {
          "indexed": false,
          "name": "quantity",
          "type": "uint256"
        }
      ],
      "name": "TicketsBought",
      "type": "event"
    },
    {
      "anonymous": false,
      "inputs": [
        {
          "indexed": true,
          "name": "date",
          "type": "uint256"
        },
        {
          "indexed": true,
          "name": "movie",
          "type": "address"
        },
        {
          "indexed": true,
          "name": "buyer",
          "type": "address"
        },
        {
          "indexed": false,
          "name": "excess",
          "type": "uint256"
        }
      ],
      "name": "ExcessPaid",
      "type": "event"
    },
    {
      "anonymous": false,
      "inputs": [
        {
          "indexed": true,
          "name": "date",
          "type": "uint256"
        },
        {
          "indexed": true,
          "name": "movie",
          "type": "address"
        },
        {
          "indexed": false,
          "name": "recipient",
          "type": "address"
        },
        {
          "indexed": false,
          "name": "amount",
          "type": "uint256"
        },
        {
          "indexed": false,
          "name": "expense",
          "type": "string"
        }
      ],
      "name": "FundWithdrawn",
      "type": "event"
    },
    {
      "anonymous": false,
      "inputs": [
        {
          "indexed": true,
          "name": "date",
          "type": "uint256"
        },
        {
          "indexed": true,
          "name": "recipient",
          "type": "address"
        },
        {
          "indexed": false,
          "name": "amount",
          "type": "uint256"
        }
      ],
      "name": "CharityDonated",
      "type": "event"
    },
    {
      "anonymous": false,
      "inputs": [
        {
          "indexed": false,
          "name": "recipient",
          "type": "address"
        },
        {
          "indexed": false,
          "name": "amount",
          "type": "uint256"
        }
      ],
      "name": "ExcessReturned",
      "type": "event"
    },
    {
      "anonymous": false,
      "inputs": [
        {
          "indexed": false,
          "name": "listingFee",
          "type": "uint256"
        },
        {
          "indexed": false,
          "name": "withdrawFee",
          "type": "uint256"
        }
      ],
      "name": "FeesUpdated",
      "type": "event"
    },
    {
      "anonymous": false,
      "inputs": [
        {
          "indexed": true,
          "name": "date",
          "type": "uint256"
        },
        {
          "indexed": true,
          "name": "sender",
          "type": "address"
        },
        {
          "indexed": false,
          "name": "value",
          "type": "uint256"
        }
      ],
      "name": "FallbackTriggered",
      "type": "event"
    },
    {
      "constant": false,
      "inputs": [
        {
          "name": "salesEndDate",
          "type": "uint256"
        },
        {
          "name": "availableTickets",
          "type": "uint256"
        },
        {
          "name": "price",
          "type": "uint256"
        },
        {
          "name": "ticketSupply",
          "type": "uint256"
        },
        {
          "name": "movieName",
          "type": "string"
        },
        {
          "name": "ticketSymbol",
          "type": "string"
        },
        {
          "name": "logline",
          "type": "string"
        },
        {
          "name": "poster",
          "type": "string"
        },
        {
          "name": "trailer",
          "type": "string"
        }
      ],
      "name": "makeFilm",
      "outputs": [
        {
          "name": "",
          "type": "bool"
        }
      ],
      "payable": false,
      "stateMutability": "nonpayable",
      "type": "function"
    },
    {
      "constant": false,
      "inputs": [
        {
          "name": "movie",
          "type": "address"
        },
        {
          "name": "quantity",
          "type": "uint256"
        }
      ],
      "name": "buyTickets",
      "outputs": [
        {
          "name": "",
          "type": "bool"
        }
      ],
      "payable": true,
      "stateMutability": "payable",
      "type": "function"
    },
    {
      "constant": false,
      "inputs": [
        {
          "name": "movie",
          "type": "address"
        },
        {
          "name": "recipient",
          "type": "address"
        },
        {
          "name": "amount",
          "type": "uint256"
        },
        {
          "name": "expense",
          "type": "string"
        }
      ],
      "name": "withdrawFund",
      "outputs": [
        {
          "name": "",
          "type": "bool"
        }
      ],
      "payable": false,
      "stateMutability": "nonpayable",
      "type": "function"
    },
    {
      "constant": true,
      "inputs": [],
      "name": "getFilms",
      "outputs": [
        {
          "name": "",
          "type": "address[]"
        }
      ],
      "payable": false,
      "stateMutability": "view",
      "type": "function"
    },
    {
      "constant": false,
      "inputs": [
        {
          "name": "listing",
          "type": "uint256"
        },
        {
          "name": "withdraw",
          "type": "uint8"
        }
      ],
      "name": "updateFees",
      "outputs": [
        {
          "name": "",
          "type": "bool"
        }
      ],
      "payable": false,
      "stateMutability": "nonpayable",
      "type": "function"
    },
    {
      "constant": false,
      "inputs": [
        {
          "name": "recipient",
          "type": "address"
        },
        {
          "name": "amount",
          "type": "uint256"
        }
      ],
      "name": "donateToCharity",
      "outputs": [
        {
          "name": "",
          "type": "bool"
        }
      ],
      "payable": false,
      "stateMutability": "nonpayable",
      "type": "function"
    },
    {
      "constant": false,
      "inputs": [
        {
          "name": "recipient",
          "type": "address"
        },
        {
          "name": "amount",
          "type": "uint256"
        }
      ],
      "name": "returnExcessPayment",
      "outputs": [
        {
          "name": "",
          "type": "bool"
        }
      ],
      "payable": false,
      "stateMutability": "nonpayable",
      "type": "function"
    },
    {
      "constant": true,
      "inputs": [],
      "name": "getBoxOfficeStats",
      "outputs": [
        {
          "name": "",
          "type": "uint256"
        },
        {
          "name": "",
          "type": "uint256"
        },
        {
          "name": "",
          "type": "uint256"
        },
        {
          "name": "",
          "type": "uint256"
        }
      ],
      "payable": false,
      "stateMutability": "view",
      "type": "function"
    },
    {
      "constant": false,
      "inputs": [],
      "name": "toggleEmergency",
      "outputs": [
        {
          "name": "",
          "type": "bool"
        }
      ],
      "payable": false,
      "stateMutability": "nonpayable",
      "type": "function"
    },
    {
      "constant": false,
      "inputs": [],
      "name": "shutDownBoxOffice",
      "outputs": [],
      "payable": false,
      "stateMutability": "nonpayable",
      "type": "function"
    }
  ],
  "bytecode": "0x608060405234801561001057600080fd5b506040516020806155a48339810180604052810190808051906020019092919050505080600160006101000a81548173ffffffffffffffffffffffffffffffffffffffff021916908373ffffffffffffffffffffffffffffffffffffffff160217905550336000806101000a81548173ffffffffffffffffffffffffffffffffffffffff021916908373ffffffffffffffffffffffffffffffffffffffff16021790555060008060146101000a81548160ff0219169083151502179055506000600281905550600060038190555060026004819055506001600560006101000a81548160ff021916908360ff16021790555050615492806101126000396000f30060806040526004361062000103576000357c0100000000000000000000000000000000000000000000000000000000900463ffffffff168063267b588d14620001545780632d1d2744146200016e5780634884b4f514620001a05780635b897c9414620002115780636a1b7ecc146200027957806388f5776714620002a7578063934aa023146200030157806393aab8d8146200032f578063a33d99cf146200039f578063a5cae0361462000563578063bb982f1514620005a6578063c4e47ff41462000600578063da3606be146200062e578063de77a7bd1462000683578063e941fa781462000751578063f26574b51462000785578063f851a44014620007ed575b3373ffffffffffffffffffffffffffffffffffffffff16427fb2a08a53341b8f03217245fa02bdedc8418d23624dff5502143eac1ae6a90c43346040518082815260200191505060405180910390a3005b3480156200016157600080fd5b506200016c62000847565b005b3480156200017b57600080fd5b5062000186620008f9565b604051808215151515815260200191505060405180910390f35b348015620001ad57600080fd5b50620001b862000988565b6040518080602001828103825283818151815260200191508051906020019060200280838360005b83811015620001fd578082015181840152602081019050620001e0565b505050509050019250505060405180910390f35b3480156200021e57600080fd5b506200025f600480360381019080803573ffffffffffffffffffffffffffffffffffffffff1690602001909291908035906020019092919050505062000a18565b604051808215151515815260200191505060405180910390f35b3480156200028657600080fd5b506200029162000b45565b6040518082815260200191505060405180910390f35b620002e7600480360381019080803573ffffffffffffffffffffffffffffffffffffffff1690602001909291908035906020019092919050505062000b4b565b604051808215151515815260200191505060405180910390f35b3480156200030e57600080fd5b506200031962000fdc565b6040518082815260200191505060405180910390f35b3480156200033c57600080fd5b506200035d6004803603810190808035906020019092919050505062000fe2565b604051808273ffffffffffffffffffffffffffffffffffffffff1673ffffffffffffffffffffffffffffffffffffffff16815260200191505060405180910390f35b348015620003ac57600080fd5b506200054960048036038101908080359060200190929190803590602001909291908035906020019092919080359060200190929190803590602001908201803590602001908080601f0160208091040260200160405190810160405280939291908181526020018383808284378201915050505050509192919290803590602001908201803590602001908080601f0160208091040260200160405190810160405280939291908181526020018383808284378201915050505050509192919290803590602001908201803590602001908080601f0160208091040260200160405190810160405280939291908181526020018383808284378201915050505050509192919290803590602001908201803590602001908080601f0160208091040260200160405190810160405280939291908181526020018383808284378201915050505050509192919290803590602001908201803590602001908080601f016020809104026020016040519081016040528093929190818152602001838380828437820191505050505050919291929050505062001021565b604051808215151515815260200191505060405180910390f35b3480156200057057600080fd5b506200057b620018c3565b6040518085815260200184815260200183815260200182815260200194505050505060405180910390f35b348015620005b357600080fd5b50620005be620018f6565b604051808273ffffffffffffffffffffffffffffffffffffffff1673ffffffffffffffffffffffffffffffffffffffff16815260200191505060405180910390f35b3480156200060d57600080fd5b50620006186200191c565b6040518082815260200191505060405180910390f35b3480156200063b57600080fd5b506200066960048036038101908080359060200190929190803560ff16906020019092919050505062001922565b604051808215151515815260200191505060405180910390f35b3480156200069057600080fd5b5062000737600480360381019080803573ffffffffffffffffffffffffffffffffffffffff169060200190929190803573ffffffffffffffffffffffffffffffffffffffff16906020019092919080359060200190929190803590602001908201803590602001908080601f016020809104026020016040519081016040528093929190818152602001838380828437820191505050505050919291929050505062001a1b565b604051808215151515815260200191505060405180910390f35b3480156200075e57600080fd5b506200076962001e36565b604051808260ff1660ff16815260200191505060405180910390f35b3480156200079257600080fd5b50620007d3600480360381019080803573ffffffffffffffffffffffffffffffffffffffff1690602001909291908035906020019092919050505062001e49565b604051808215151515815260200191505060405180910390f35b348015620007fa57600080fd5b506200080562001f8b565b604051808273ffffffffffffffffffffffffffffffffffffffff1673ffffffffffffffffffffffffffffffffffffffff16815260200191505060405180910390f35b600060149054906101000a900460ff1615156200086357600080fd5b6000809054906101000a900473ffffffffffffffffffffffffffffffffffffffff1673ffffffffffffffffffffffffffffffffffffffff163373ffffffffffffffffffffffffffffffffffffffff16141515620008bf57600080fd5b6000809054906101000a900473ffffffffffffffffffffffffffffffffffffffff1673ffffffffffffffffffffffffffffffffffffffff16ff5b60008060009054906101000a900473ffffffffffffffffffffffffffffffffffffffff1673ffffffffffffffffffffffffffffffffffffffff163373ffffffffffffffffffffffffffffffffffffffff161415156200095757600080fd5b600060149054906101000a900460ff1615600060146101000a81548160ff0219169083151502179055506001905090565b6060600680548060200260200160405190810160405280929190818152602001828054801562000a0e57602002820191906000526020600020905b8160009054906101000a900473ffffffffffffffffffffffffffffffffffffffff1673ffffffffffffffffffffffffffffffffffffffff1681526020019060010190808311620009c3575b5050505050905090565b60008060009054906101000a900473ffffffffffffffffffffffffffffffffffffffff1673ffffffffffffffffffffffffffffffffffffffff163373ffffffffffffffffffffffffffffffffffffffff1614151562000a7657600080fd5b600254821115151562000a8857600080fd5b62000a9f8260025462001fb090919063ffffffff16565b6002819055508273ffffffffffffffffffffffffffffffffffffffff16427eec3c7b13422666a03aaa726a042be75ab337d780acd7c9264b2a75b98fa794846040518082815260200191505060405180910390a38273ffffffffffffffffffffffffffffffffffffffff166108fc839081150290604051600060405180830381858888f1935050505015801562000b3a573d6000803e3d6000fd5b506001905092915050565b60045481565b600080600080600060149054906101000a900460ff1615151562000b6e57600080fd5b60008511151562000b7e57600080fd5b8592508273ffffffffffffffffffffffffffffffffffffffff1663a035b1fe6040518163ffffffff167c0100000000000000000000000000000000000000000000000000000000028152600401602060405180830381600087803b15801562000be657600080fd5b505af115801562000bfb573d6000803e3d6000fd5b505050506040513d602081101562000c1257600080fd5b810190808051906020019092919050505091508273ffffffffffffffffffffffffffffffffffffffff1663452d455f6040518163ffffffff167c0100000000000000000000000000000000000000000000000000000000028152600401602060405180830381600087803b15801562000c8a57600080fd5b505af115801562000c9f573d6000803e3d6000fd5b505050506040513d602081101562000cb657600080fd5b81019080805190602001909291905050504210151562000cd557600080fd5b8273ffffffffffffffffffffffffffffffffffffffff16633cfa7e016040518163ffffffff167c0100000000000000000000000000000000000000000000000000000000028152600401602060405180830381600087803b15801562000d3a57600080fd5b505af115801562000d4f573d6000803e3d6000fd5b505050506040513d602081101562000d6657600080fd5b8101908080519060200190929190505050851115151562000d8657600080fd5b62000d9b828662001fca90919063ffffffff16565b341015151562000daa57600080fd5b62000dd362000dc3838762001fca90919063ffffffff16565b3462001fb090919063ffffffff16565b9050600081111562000e46573373ffffffffffffffffffffffffffffffffffffffff168673ffffffffffffffffffffffffffffffffffffffff16427fb6fbfc7e97cd407453325a4a5bc9c8d045bc0a027f7a413091c9449d1c5b6781846040518082815260200191505060405180910390a45b8273ffffffffffffffffffffffffffffffffffffffff166388f5776733876040518363ffffffff167c0100000000000000000000000000000000000000000000000000000000028152600401808373ffffffffffffffffffffffffffffffffffffffff1673ffffffffffffffffffffffffffffffffffffffff16815260200182815260200192505050602060405180830381600087803b15801562000eea57600080fd5b505af115801562000eff573d6000803e3d6000fd5b505050506040513d602081101562000f1657600080fd5b8101908080519060200190929190505050507f0d1cb2f55c27cf94d1415183d6774c0a9b07d3920c2920855dac8b52c363e9b386338488604051808573ffffffffffffffffffffffffffffffffffffffff1673ffffffffffffffffffffffffffffffffffffffff1681526020018473ffffffffffffffffffffffffffffffffffffffff1673ffffffffffffffffffffffffffffffffffffffff16815260200183815260200182815260200194505050505060405180910390a16001935050505092915050565b60035481565b60068181548110151562000ff257fe5b906000526020600020016000915054906101000a900473ffffffffffffffffffffffffffffffffffffffff1681565b600080600060149054906101000a900460ff161515156200104157600080fd5b600454600160009054906101000a900473ffffffffffffffffffffffffffffffffffffffff1673ffffffffffffffffffffffffffffffffffffffff166370a08231336040518263ffffffff167c0100000000000000000000000000000000000000000000000000000000028152600401808273ffffffffffffffffffffffffffffffffffffffff1673ffffffffffffffffffffffffffffffffffffffff168152602001915050602060405180830381600087803b1580156200110257600080fd5b505af115801562001117573d6000803e3d6000fd5b505050506040513d60208110156200112e57600080fd5b8101908080519060200190929190505050101515156200114d57600080fd5b600160009054906101000a900473ffffffffffffffffffffffffffffffffffffffff1673ffffffffffffffffffffffffffffffffffffffff16631afdf33b336004546040518363ffffffff167c0100000000000000000000000000000000000000000000000000000000028152600401808373ffffffffffffffffffffffffffffffffffffffff1673ffffffffffffffffffffffffffffffffffffffff16815260200182815260200192505050602060405180830381600087803b1580156200121557600080fd5b505af11580156200122a573d6000803e3d6000fd5b505050506040513d60208110156200124157600080fd5b810190808051906020019092919050505050428b1115156200126257600080fd5b878a111515156200127257600080fd5b6000891115156200128257600080fd5b6000881115156200129257600080fd5b60008751111515620012a357600080fd5b60008651111515620012b457600080fd5b60008551111515620012c557600080fd5b60008451111515620012d657600080fd5b60008351111515620012e757600080fd5b338b8b8b8b8b8b8b8b8b620012fb6200203a565b808b73ffffffffffffffffffffffffffffffffffffffff1673ffffffffffffffffffffffffffffffffffffffff1681526020018a8152602001898152602001888152602001878152602001806020018060200180602001806020018060200186810386528b818151815260200191508051906020019080838360005b838110156200139457808201518184015260208101905062001377565b50505050905090810190601f168015620013c25780820380516001836020036101000a031916815260200191505b5086810385528a818151815260200191508051906020019080838360005b83811015620013fd578082015181840152602081019050620013e0565b50505050905090810190601f1680156200142b5780820380516001836020036101000a031916815260200191505b50868103845289818151815260200191508051906020019080838360005b838110156200146657808201518184015260208101905062001449565b50505050905090810190601f168015620014945780820380516001836020036101000a031916815260200191505b50868103835288818151815260200191508051906020019080838360005b83811015620014cf578082015181840152602081019050620014b2565b50505050905090810190601f168015620014fd5780820380516001836020036101000a031916815260200191505b50868103825287818151815260200191508051906020019080838360005b83811015620015385780820151818401526020810190506200151b565b50505050905090810190601f168015620015665780820380516001836020036101000a031916815260200191505b509f50505050505050505050505050505050604051809103906000f08015801562001595573d6000803e3d6000fd5b50905060068190806001815401808255809150509060018203906000526020600020016000909192909190916101000a81548173ffffffffffffffffffffffffffffffffffffffff021916908373ffffffffffffffffffffffffffffffffffffffff160217905550507f204a5a73bc95b002c4071f207fde4e83ad67c4d22fd145c1f42ca015002f33eb818c8c8c8c8c8c8c8c8c604051808b73ffffffffffffffffffffffffffffffffffffffff1673ffffffffffffffffffffffffffffffffffffffff1681526020018a8152602001898152602001888152602001878152602001806020018060200180602001806020018060200186810386528b818151815260200191508051906020019080838360005b83811015620016c5578082015181840152602081019050620016a8565b50505050905090810190601f168015620016f35780820380516001836020036101000a031916815260200191505b5086810385528a818151815260200191508051906020019080838360005b838110156200172e57808201518184015260208101905062001711565b50505050905090810190601f1680156200175c5780820380516001836020036101000a031916815260200191505b50868103845289818151815260200191508051906020019080838360005b83811015620017975780820151818401526020810190506200177a565b50505050905090810190601f168015620017c55780820380516001836020036101000a031916815260200191505b50868103835288818151815260200191508051906020019080838360005b8381101562001800578082015181840152602081019050620017e3565b50505050905090810190601f1680156200182e5780820380516001836020036101000a031916815260200191505b50868103825287818151815260200191508051906020019080838360005b83811015620018695780820151818401526020810190506200184c565b50505050905090810190601f168015620018975780820380516001836020036101000a031916815260200191505b509f5050505050505050505050505050505060405180910390a160019150509998505050505050505050565b600080600080600454600560009054906101000a900460ff166002546003548260ff169250935093509350935090919293565b600160009054906101000a900473ffffffffffffffffffffffffffffffffffffffff1681565b60025481565b60008060149054906101000a900460ff161515156200194057600080fd5b6000809054906101000a900473ffffffffffffffffffffffffffffffffffffffff1673ffffffffffffffffffffffffffffffffffffffff163373ffffffffffffffffffffffffffffffffffffffff161415156200199c57600080fd5b8260048190555081600560006101000a81548160ff021916908360ff1602179055507f5c6323bf1c2d7aaea2c091a4751c1c87af7f2864650c336507a77d0557af37a1600454600560009054906101000a900460ff16604051808381526020018260ff1681526020019250505060405180910390a16001905092915050565b60008060149054906101000a900460ff1615151562001a3957600080fd5b848073ffffffffffffffffffffffffffffffffffffffff16631d9d844e6040518163ffffffff167c0100000000000000000000000000000000000000000000000000000000028152600401602060405180830381600087803b15801562001a9f57600080fd5b505af115801562001ab4573d6000803e3d6000fd5b505050506040513d602081101562001acb57600080fd5b810190808051906020019092919050505073ffffffffffffffffffffffffffffffffffffffff163373ffffffffffffffffffffffffffffffffffffffff1614151562001b1657600080fd5b83600062001b55606462001b4684600560009054906101000a900460ff1660ff1662001fca90919063ffffffff16565b6200200690919063ffffffff16565b905062001b6e816002546200201d90919063ffffffff16565b60028190555062001b8b816003546200201d90919063ffffffff16565b600381905550600073ffffffffffffffffffffffffffffffffffffffff168773ffffffffffffffffffffffffffffffffffffffff161415151562001bce57600080fd5b60008611151562001bde57600080fd5b6000855111151562001bef57600080fd5b8773ffffffffffffffffffffffffffffffffffffffff16630cee172562001c5b62001c4b606462001c3c8b600560009054906101000a900460ff1660ff1662001fca90919063ffffffff16565b6200200690919063ffffffff16565b896200201d90919063ffffffff16565b6040518263ffffffff167c010000000000000000000000000000000000000000000000000000000002815260040180828152602001915050602060405180830381600087803b15801562001cae57600080fd5b505af115801562001cc3573d6000803e3d6000fd5b505050506040513d602081101562001cda57600080fd5b8101908080519060200190929190505050508773ffffffffffffffffffffffffffffffffffffffff16427fea43979fbb8e754a543625ef9dc3b20e0287d72b7e32f3a73e7ed8c64157703a898989604051808473ffffffffffffffffffffffffffffffffffffffff1673ffffffffffffffffffffffffffffffffffffffff16815260200183815260200180602001828103825283818151815260200191508051906020019080838360005b8381101562001da257808201518184015260208101905062001d85565b50505050905090810190601f16801562001dd05780820380516001836020036101000a031916815260200191505b5094505050505060405180910390a38673ffffffffffffffffffffffffffffffffffffffff166108fc879081150290604051600060405180830381858888f1935050505015801562001e26573d6000803e3d6000fd5b5060019350505050949350505050565b600560009054906101000a900460ff1681565b60008060009054906101000a900473ffffffffffffffffffffffffffffffffffffffff1673ffffffffffffffffffffffffffffffffffffffff163373ffffffffffffffffffffffffffffffffffffffff1614151562001ea757600080fd5b3073ffffffffffffffffffffffffffffffffffffffff1631821115151562001ece57600080fd5b7fd18251b9b6197210938833082964f0ebac7c8c9d8eb934c4675f59079476a2b28383604051808373ffffffffffffffffffffffffffffffffffffffff1673ffffffffffffffffffffffffffffffffffffffff1681526020018281526020019250505060405180910390a18273ffffffffffffffffffffffffffffffffffffffff166108fc839081150290604051600060405180830381858888f1935050505015801562001f80573d6000803e3d6000fd5b506001905092915050565b6000809054906101000a900473ffffffffffffffffffffffffffffffffffffffff1681565b600082821115151562001fbf57fe5b818303905092915050565b60008083141562001fdf576000905062002000565b818302905081838281151562001ff157fe5b0414151562001ffc57fe5b8090505b92915050565b600081838115156200201457fe5b04905092915050565b600081830190508281101515156200203157fe5b80905092915050565b60405161341b806200204c83390190560060806040523480156200001157600080fd5b506040516200341b3803806200341b8339810180604052810190808051906020019092919080519060200190929190805190602001909291908051906020019092919080519060200190929190805182019291906020018051820192919060200180518201929190602001805182019291906020018051820192919050505033600560006101000a81548173ffffffffffffffffffffffffffffffffffffffff021916908373ffffffffffffffffffffffffffffffffffffffff16021790555089600660006101000a81548173ffffffffffffffffffffffffffffffffffffffff021916908373ffffffffffffffffffffffffffffffffffffffff160217905550426008819055506000600c819055506000600d819055508860098190555087600a8190555086600b819055508560018190555084600390805190602001906200015d92919062000300565b5083600490805190602001906200017692919062000300565b5082600e90805190602001906200018f92919062000300565b5081600f9080519060200190620001a892919062000300565b508060109080519060200190620001c192919062000300565b50600154600080600660009054906101000a900473ffffffffffffffffffffffffffffffffffffffff1673ffffffffffffffffffffffffffffffffffffffff1673ffffffffffffffffffffffffffffffffffffffff1681526020019081526020016000208190555060015460026000600660009054906101000a900473ffffffffffffffffffffffffffffffffffffffff1673ffffffffffffffffffffffffffffffffffffffff1673ffffffffffffffffffffffffffffffffffffffff1681526020019081526020016000206000600560009054906101000a900473ffffffffffffffffffffffffffffffffffffffff1673ffffffffffffffffffffffffffffffffffffffff1673ffffffffffffffffffffffffffffffffffffffff1681526020019081526020016000208190555050505050505050505050620003af565b828054600181600116156101000203166002900490600052602060002090601f016020900481019282601f106200034357805160ff191683800117855562000374565b8280016001018555821562000374579182015b828111156200037357825182559160200191906001019062000356565b5b50905062000383919062000387565b5090565b620003ac91905b80821115620003a85760008160009055506001016200038e565b5090565b90565b61305c80620003bf6000396000f300608060405260043610610180576000357c0100000000000000000000000000000000000000000000000000000000900463ffffffff1680630641def21461018557806306fdde03146101dc578063095ea7b31461026c5780630cee1725146102d157806318160ddd146103165780631d9d844e1461034157806323b872dd14610398578063313ce5671461041d5780633840ab441461044e5780633c1db66a146104955780633cfa7e011461064c578063452d455f146106775780635d91922d146106a2578063661884631461073257806370a082311461079757806380959721146107ee578063839dfa1f1461087e57806388f57767146108ad5780638bb4ee1e1461091257806395d89b411461097f578063a035b1fe14610a0f578063a41c35f014610a3a578063a9059cbb14610aca578063aace52fe14610b2f578063b2f4bdb014610b5a578063b60d428814610b85578063d73dd62314610bb0578063dd62ed3e14610c15578063ee7d837014610c8c578063f63125cb14610f1b575b600080fd5b34801561019157600080fd5b5061019a610f87565b604051808273ffffffffffffffffffffffffffffffffffffffff1673ffffffffffffffffffffffffffffffffffffffff16815260200191505060405180910390f35b3480156101e857600080fd5b506101f1610fad565b6040518080602001828103825283818151815260200191508051906020019080838360005b83811015610231578082015181840152602081019050610216565b50505050905090810190601f16801561025e5780820380516001836020036101000a031916815260200191505b509250505060405180910390f35b34801561027857600080fd5b506102b7600480360381019080803573ffffffffffffffffffffffffffffffffffffffff1690602001909291908035906020019092919050505061104b565b604051808215151515815260200191505060405180910390f35b3480156102dd57600080fd5b506102fc6004803603810190808035906020019092919050505061113d565b604051808215151515815260200191505060405180910390f35b34801561032257600080fd5b5061032b6111d0565b6040518082815260200191505060405180910390f35b34801561034d57600080fd5b506103566111da565b604051808273ffffffffffffffffffffffffffffffffffffffff1673ffffffffffffffffffffffffffffffffffffffff16815260200191505060405180910390f35b3480156103a457600080fd5b50610403600480360381019080803573ffffffffffffffffffffffffffffffffffffffff169060200190929190803573ffffffffffffffffffffffffffffffffffffffff16906020019092919080359060200190929190505050611200565b604051808215151515815260200191505060405180910390f35b34801561042957600080fd5b506104326115bb565b604051808260ff1660ff16815260200191505060405180910390f35b34801561045a57600080fd5b506104636115c0565b604051808681526020018581526020018481526020018381526020018281526020019550505050505060405180910390f35b3480156104a157600080fd5b50610632600480360381019080803590602001909291908035906020019092919080359060200190929190803590602001908201803590602001908080601f0160208091040260200160405190810160405280939291908181526020018383808284378201915050505050509192919290803590602001908201803590602001908080601f0160208091040260200160405190810160405280939291908181526020018383808284378201915050505050509192919290803590602001908201803590602001908080601f0160208091040260200160405190810160405280939291908181526020018383808284378201915050505050509192919290803590602001908201803590602001908080601f0160208091040260200160405190810160405280939291908181526020018383808284378201915050505050509192919290803590602001908201803590602001908080601f0160208091040260200160405190810160405280939291908181526020018383808284378201915050505050509192919290505050611638565b604051808215151515815260200191505060405180910390f35b34801561065857600080fd5b50610661611a88565b6040518082815260200191505060405180910390f35b34801561068357600080fd5b5061068c611a8e565b6040518082815260200191505060405180910390f35b3480156106ae57600080fd5b506106b7611a94565b6040518080602001828103825283818151815260200191508051906020019080838360005b838110156106f75780820151818401526020810190506106dc565b50505050905090810190601f1680156107245780820380516001836020036101000a031916815260200191505b509250505060405180910390f35b34801561073e57600080fd5b5061077d600480360381019080803573ffffffffffffffffffffffffffffffffffffffff16906020019092919080359060200190929190505050611b32565b604051808215151515815260200191505060405180910390f35b3480156107a357600080fd5b506107d8600480360381019080803573ffffffffffffffffffffffffffffffffffffffff169060200190929190505050611dc4565b6040518082815260200191505060405180910390f35b3480156107fa57600080fd5b50610803611e0c565b6040518080602001828103825283818151815260200191508051906020019080838360005b83811015610843578082015181840152602081019050610828565b50505050905090810190601f1680156108705780820380516001836020036101000a031916815260200191505b509250505060405180910390f35b34801561088a57600080fd5b50610893611eaa565b604051808215151515815260200191505060405180910390f35b3480156108b957600080fd5b506108f8600480360381019080803573ffffffffffffffffffffffffffffffffffffffff169060200190929190803590602001909291905050506121b4565b604051808215151515815260200191505060405180910390f35b34801561091e57600080fd5b5061093d600480360381019080803590602001909291905050506124f5565b604051808273ffffffffffffffffffffffffffffffffffffffff1673ffffffffffffffffffffffffffffffffffffffff16815260200191505060405180910390f35b34801561098b57600080fd5b50610994612533565b6040518080602001828103825283818151815260200191508051906020019080838360005b838110156109d45780820151818401526020810190506109b9565b50505050905090810190601f168015610a015780820380516001836020036101000a031916815260200191505b509250505060405180910390f35b348015610a1b57600080fd5b50610a246125d1565b6040518082815260200191505060405180910390f35b348015610a4657600080fd5b50610a4f6125d7565b6040518080602001828103825283818151815260200191508051906020019080838360005b83811015610a8f578082015181840152602081019050610a74565b50505050905090810190601f168015610abc5780820380516001836020036101000a031916815260200191505b509250505060405180910390f35b348015610ad657600080fd5b50610b15600480360381019080803573ffffffffffffffffffffffffffffffffffffffff16906020019092919080359060200190929190505050612675565b604051808215151515815260200191505060405180910390f35b348015610b3b57600080fd5b50610b44612895565b6040518082815260200191505060405180910390f35b348015610b6657600080fd5b50610b6f61289b565b6040518082815260200191505060405180910390f35b348015610b9157600080fd5b50610b9a6128a1565b6040518082815260200191505060405180910390f35b348015610bbc57600080fd5b50610bfb600480360381019080803573ffffffffffffffffffffffffffffffffffffffff169060200190929190803590602001909291905050506128a7565b604051808215151515815260200191505060405180910390f35b348015610c2157600080fd5b50610c76600480360381019080803573ffffffffffffffffffffffffffffffffffffffff169060200190929190803573ffffffffffffffffffffffffffffffffffffffff169060200190929190505050612aa3565b6040518082815260200191505060405180910390f35b348015610c9857600080fd5b50610ca1612b2a565b604051808b73ffffffffffffffffffffffffffffffffffffffff1673ffffffffffffffffffffffffffffffffffffffff1681526020018a8152602001898152602001888152602001878152602001806020018060200180602001806020018060200186810386528b818151815260200191508051906020019080838360005b83811015610d3b578082015181840152602081019050610d20565b50505050905090810190601f168015610d685780820380516001836020036101000a031916815260200191505b5086810385528a818151815260200191508051906020019080838360005b83811015610da1578082015181840152602081019050610d86565b50505050905090810190601f168015610dce5780820380516001836020036101000a031916815260200191505b50868103845289818151815260200191508051906020019080838360005b83811015610e07578082015181840152602081019050610dec565b50505050905090810190601f168015610e345780820380516001836020036101000a031916815260200191505b50868103835288818151815260200191508051906020019080838360005b83811015610e6d578082015181840152602081019050610e52565b50505050905090810190601f168015610e9a5780820380516001836020036101000a031916815260200191505b50868103825287818151815260200191508051906020019080838360005b83811015610ed3578082015181840152602081019050610eb8565b50505050905090810190601f168015610f005780820380516001836020036101000a031916815260200191505b509f5050505050505050505050505050505060405180910390f35b348015610f2757600080fd5b50610f30612e90565b6040518080602001828103825283818151815260200191508051906020019060200280838360005b83811015610f73578082015181840152602081019050610f58565b505050509050019250505060405180910390f35b600560009054906101000a900473ffffffffffffffffffffffffffffffffffffffff1681565b60038054600181600116156101000203166002900480601f0160208091040260200160405190810160405280929190818152602001828054600181600116156101000203166002900480156110435780601f1061101857610100808354040283529160200191611043565b820191906000526020600020905b81548152906001019060200180831161102657829003601f168201915b505050505081565b600081600260003373ffffffffffffffffffffffffffffffffffffffff1673ffffffffffffffffffffffffffffffffffffffff16815260200190815260200160002060008573ffffffffffffffffffffffffffffffffffffffff1673ffffffffffffffffffffffffffffffffffffffff168152602001908152602001600020819055508273ffffffffffffffffffffffffffffffffffffffff163373ffffffffffffffffffffffffffffffffffffffff167f8c5be1e5ebec7d5bd14f71427d1e84f3dd0314c0f7b2291e5b200ac8c7c3b925846040518082815260200191505060405180910390a36001905092915050565b6000600560009054906101000a900473ffffffffffffffffffffffffffffffffffffffff1673ffffffffffffffffffffffffffffffffffffffff163373ffffffffffffffffffffffffffffffffffffffff1614151561119b57600080fd5b81600d54101515156111ac57600080fd5b6111c182600d54612f1e90919063ffffffff16565b600d8190555060019050919050565b6000600154905090565b600660009054906101000a900473ffffffffffffffffffffffffffffffffffffffff1681565b60008060008573ffffffffffffffffffffffffffffffffffffffff1673ffffffffffffffffffffffffffffffffffffffff16815260200190815260200160002054821115151561124f57600080fd5b600260008573ffffffffffffffffffffffffffffffffffffffff1673ffffffffffffffffffffffffffffffffffffffff16815260200190815260200160002060003373ffffffffffffffffffffffffffffffffffffffff1673ffffffffffffffffffffffffffffffffffffffff1681526020019081526020016000205482111515156112da57600080fd5b600073ffffffffffffffffffffffffffffffffffffffff168373ffffffffffffffffffffffffffffffffffffffff161415151561131657600080fd5b611367826000808773ffffffffffffffffffffffffffffffffffffffff1673ffffffffffffffffffffffffffffffffffffffff16815260200190815260200160002054612f1e90919063ffffffff16565b6000808673ffffffffffffffffffffffffffffffffffffffff1673ffffffffffffffffffffffffffffffffffffffff168152602001908152602001600020819055506113fa826000808673ffffffffffffffffffffffffffffffffffffffff1673ffffffffffffffffffffffffffffffffffffffff16815260200190815260200160002054612f3790919063ffffffff16565b6000808573ffffffffffffffffffffffffffffffffffffffff1673ffffffffffffffffffffffffffffffffffffffff168152602001908152602001600020819055506114cb82600260008773ffffffffffffffffffffffffffffffffffffffff1673ffffffffffffffffffffffffffffffffffffffff16815260200190815260200160002060003373ffffffffffffffffffffffffffffffffffffffff1673ffffffffffffffffffffffffffffffffffffffff16815260200190815260200160002054612f1e90919063ffffffff16565b600260008673ffffffffffffffffffffffffffffffffffffffff1673ffffffffffffffffffffffffffffffffffffffff16815260200190815260200160002060003373ffffffffffffffffffffffffffffffffffffffff1673ffffffffffffffffffffffffffffffffffffffff168152602001908152602001600020819055508273ffffffffffffffffffffffffffffffffffffffff168473ffffffffffffffffffffffffffffffffffffffff167fddf252ad1be2c89b69c2b068fc378daa952ba7f163c4a11628f55a4df523b3ef846040518082815260200191505060405180910390a3600190509392505050565b600081565b6000806000806000600c54600d546115f9600560009054906101000a900473ffffffffffffffffffffffffffffffffffffffff16611dc4565b611624600660009054906101000a900473ffffffffffffffffffffffffffffffffffffffff16611dc4565b600154945094509450945094509091929394565b6000600660009054906101000a900473ffffffffffffffffffffffffffffffffffffffff1673ffffffffffffffffffffffffffffffffffffffff163373ffffffffffffffffffffffffffffffffffffffff1614151561169657600080fd5b428911156116a657886009819055505b600154881115156116b95787600a819055505b60008711156116ca5786600b819055505b6000865111156116ec5785600390805190602001906116ea929190612f8b565b505b60008551111561170e57846004908051906020019061170c929190612f8b565b505b6000845111156117305783600e908051906020019061172e929190612f8b565b505b6000835111156117525782600f9080519060200190611750929190612f8b565b505b600082511115611774578160109080519060200190611772929190612f8b565b505b7f8cb3135083431f1ab0230b1a8e86f6ae45c0113bc0de105a4b738be9f5be4b4b600954600a54600b5460036004600e600f601060405180898152602001888152602001878152602001806020018060200180602001806020018060200186810386528b8181546001816001161561010002031660029004815260200191508054600181600116156101000203166002900480156118535780601f1061182857610100808354040283529160200191611853565b820191906000526020600020905b81548152906001019060200180831161183657829003601f168201915b505086810385528a8181546001816001161561010002031660029004815260200191508054600181600116156101000203166002900480156118d65780601f106118ab576101008083540402835291602001916118d6565b820191906000526020600020905b8154815290600101906020018083116118b957829003601f168201915b50508681038452898181546001816001161561010002031660029004815260200191508054600181600116156101000203166002900480156119595780601f1061192e57610100808354040283529160200191611959565b820191906000526020600020905b81548152906001019060200180831161193c57829003601f168201915b50508681038352888181546001816001161561010002031660029004815260200191508054600181600116156101000203166002900480156119dc5780601f106119b1576101008083540402835291602001916119dc565b820191906000526020600020905b8154815290600101906020018083116119bf57829003601f168201915b5050868103825287818154600181600116156101000203166002900481526020019150805460018160011615610100020316600290048015611a5f5780601f10611a3457610100808354040283529160200191611a5f565b820191906000526020600020905b815481529060010190602001808311611a4257829003601f168201915b50509d505050505050505050505050505060405180910390a16001905098975050505050505050565b600a5481565b60095481565b600e8054600181600116156101000203166002900480601f016020809104026020016040519081016040528092919081815260200182805460018160011615610100020316600290048015611b2a5780601f10611aff57610100808354040283529160200191611b2a565b820191906000526020600020905b815481529060010190602001808311611b0d57829003601f168201915b505050505081565b600080600260003373ffffffffffffffffffffffffffffffffffffffff1673ffffffffffffffffffffffffffffffffffffffff16815260200190815260200160002060008573ffffffffffffffffffffffffffffffffffffffff1673ffffffffffffffffffffffffffffffffffffffff1681526020019081526020016000205490508083101515611c44576000600260003373ffffffffffffffffffffffffffffffffffffffff1673ffffffffffffffffffffffffffffffffffffffff16815260200190815260200160002060008673ffffffffffffffffffffffffffffffffffffffff1673ffffffffffffffffffffffffffffffffffffffff16815260200190815260200160002081905550611cd8565b611c578382612f1e90919063ffffffff16565b600260003373ffffffffffffffffffffffffffffffffffffffff1673ffffffffffffffffffffffffffffffffffffffff16815260200190815260200160002060008673ffffffffffffffffffffffffffffffffffffffff1673ffffffffffffffffffffffffffffffffffffffff168152602001908152602001600020819055505b8373ffffffffffffffffffffffffffffffffffffffff163373ffffffffffffffffffffffffffffffffffffffff167f8c5be1e5ebec7d5bd14f71427d1e84f3dd0314c0f7b2291e5b200ac8c7c3b925600260003373ffffffffffffffffffffffffffffffffffffffff1673ffffffffffffffffffffffffffffffffffffffff16815260200190815260200160002060008873ffffffffffffffffffffffffffffffffffffffff1673ffffffffffffffffffffffffffffffffffffffff168152602001908152602001600020546040518082815260200191505060405180910390a3600191505092915050565b60008060008373ffffffffffffffffffffffffffffffffffffffff1673ffffffffffffffffffffffffffffffffffffffff168152602001908152602001600020549050919050565b600f8054600181600116156101000203166002900480601f016020809104026020016040519081016040528092919081815260200182805460018160011615610100020316600290048015611ea25780601f10611e7757610100808354040283529160200191611ea2565b820191906000526020600020905b815481529060010190602001808311611e8557829003601f168201915b505050505081565b600080611eb633611dc4565b111515611ec257600080fd5b60016000803373ffffffffffffffffffffffffffffffffffffffff1673ffffffffffffffffffffffffffffffffffffffff1681526020019081526020016000205410151515611f1057600080fd5b611f6260016000803373ffffffffffffffffffffffffffffffffffffffff1673ffffffffffffffffffffffffffffffffffffffff16815260200190815260200160002054612f1e90919063ffffffff16565b6000803373ffffffffffffffffffffffffffffffffffffffff1673ffffffffffffffffffffffffffffffffffffffff168152602001908152602001600020819055506120186001600080600560009054906101000a900473ffffffffffffffffffffffffffffffffffffffff1673ffffffffffffffffffffffffffffffffffffffff1673ffffffffffffffffffffffffffffffffffffffff16815260200190815260200160002054612f3790919063ffffffff16565b600080600560009054906101000a900473ffffffffffffffffffffffffffffffffffffffff1673ffffffffffffffffffffffffffffffffffffffff1673ffffffffffffffffffffffffffffffffffffffff1681526020019081526020016000208190555060073390806001815401808255809150509060018203906000526020600020016000909192909190916101000a81548173ffffffffffffffffffffffffffffffffffffffff021916908373ffffffffffffffffffffffffffffffffffffffff160217905550503373ffffffffffffffffffffffffffffffffffffffff167f66f39243fdcc85d7a3250a7546d65477294fa6d541ec404ec0300b0b99eb10de60405160405180910390a2600560009054906101000a900473ffffffffffffffffffffffffffffffffffffffff1673ffffffffffffffffffffffffffffffffffffffff163373ffffffffffffffffffffffffffffffffffffffff167fddf252ad1be2c89b69c2b068fc378daa952ba7f163c4a11628f55a4df523b3ef60016040518082815260200191505060405180910390a36001905090565b6000600560009054906101000a900473ffffffffffffffffffffffffffffffffffffffff1673ffffffffffffffffffffffffffffffffffffffff163373ffffffffffffffffffffffffffffffffffffffff1614151561221257600080fd5b81600080600660009054906101000a900473ffffffffffffffffffffffffffffffffffffffff1673ffffffffffffffffffffffffffffffffffffffff1673ffffffffffffffffffffffffffffffffffffffff168152602001908152602001600020541015151561228157600080fd5b6122f482600080600660009054906101000a900473ffffffffffffffffffffffffffffffffffffffff1673ffffffffffffffffffffffffffffffffffffffff1673ffffffffffffffffffffffffffffffffffffffff16815260200190815260200160002054612f1e90919063ffffffff16565b600080600660009054906101000a900473ffffffffffffffffffffffffffffffffffffffff1673ffffffffffffffffffffffffffffffffffffffff1673ffffffffffffffffffffffffffffffffffffffff168152602001908152602001600020819055506123a9826000808673ffffffffffffffffffffffffffffffffffffffff1673ffffffffffffffffffffffffffffffffffffffff16815260200190815260200160002054612f3790919063ffffffff16565b6000808573ffffffffffffffffffffffffffffffffffffffff1673ffffffffffffffffffffffffffffffffffffffff1681526020019081526020016000208190555061240082600a54612f1e90919063ffffffff16565b600a8190555061242f61241e600b5484612f5390919063ffffffff16565b600c54612f3790919063ffffffff16565b600c8190555061245e61244d600b5484612f5390919063ffffffff16565b600d54612f3790919063ffffffff16565b600d819055508273ffffffffffffffffffffffffffffffffffffffff16600660009054906101000a900473ffffffffffffffffffffffffffffffffffffffff1673ffffffffffffffffffffffffffffffffffffffff167fddf252ad1be2c89b69c2b068fc378daa952ba7f163c4a11628f55a4df523b3ef846040518082815260200191505060405180910390a36001905092915050565b60078181548110151561250457fe5b906000526020600020016000915054906101000a900473ffffffffffffffffffffffffffffffffffffffff1681565b60048054600181600116156101000203166002900480601f0160208091040260200160405190810160405280929190818152602001828054600181600116156101000203166002900480156125c95780601f1061259e576101008083540402835291602001916125c9565b820191906000526020600020905b8154815290600101906020018083116125ac57829003601f168201915b505050505081565b600b5481565b60108054600181600116156101000203166002900480601f01602080910402602001604051908101604052809291908181526020018280546001816001161561010002031660029004801561266d5780601f106126425761010080835404028352916020019161266d565b820191906000526020600020905b81548152906001019060200180831161265057829003601f168201915b505050505081565b60008060003373ffffffffffffffffffffffffffffffffffffffff1673ffffffffffffffffffffffffffffffffffffffff1681526020019081526020016000205482111515156126c457600080fd5b600073ffffffffffffffffffffffffffffffffffffffff168373ffffffffffffffffffffffffffffffffffffffff161415151561270057600080fd5b612751826000803373ffffffffffffffffffffffffffffffffffffffff1673ffffffffffffffffffffffffffffffffffffffff16815260200190815260200160002054612f1e90919063ffffffff16565b6000803373ffffffffffffffffffffffffffffffffffffffff1673ffffffffffffffffffffffffffffffffffffffff168152602001908152602001600020819055506127e4826000808673ffffffffffffffffffffffffffffffffffffffff1673ffffffffffffffffffffffffffffffffffffffff16815260200190815260200160002054612f3790919063ffffffff16565b6000808573ffffffffffffffffffffffffffffffffffffffff1673ffffffffffffffffffffffffffffffffffffffff168152602001908152602001600020819055508273ffffffffffffffffffffffffffffffffffffffff163373ffffffffffffffffffffffffffffffffffffffff167fddf252ad1be2c89b69c2b068fc378daa952ba7f163c4a11628f55a4df523b3ef846040518082815260200191505060405180910390a36001905092915050565b600c5481565b60085481565b600d5481565b600061293882600260003373ffffffffffffffffffffffffffffffffffffffff1673ffffffffffffffffffffffffffffffffffffffff16815260200190815260200160002060008673ffffffffffffffffffffffffffffffffffffffff1673ffffffffffffffffffffffffffffffffffffffff16815260200190815260200160002054612f3790919063ffffffff16565b600260003373ffffffffffffffffffffffffffffffffffffffff1673ffffffffffffffffffffffffffffffffffffffff16815260200190815260200160002060008573ffffffffffffffffffffffffffffffffffffffff1673ffffffffffffffffffffffffffffffffffffffff168152602001908152602001600020819055508273ffffffffffffffffffffffffffffffffffffffff163373ffffffffffffffffffffffffffffffffffffffff167f8c5be1e5ebec7d5bd14f71427d1e84f3dd0314c0f7b2291e5b200ac8c7c3b925600260003373ffffffffffffffffffffffffffffffffffffffff1673ffffffffffffffffffffffffffffffffffffffff16815260200190815260200160002060008773ffffffffffffffffffffffffffffffffffffffff1673ffffffffffffffffffffffffffffffffffffffff168152602001908152602001600020546040518082815260200191505060405180910390a36001905092915050565b6000600260008473ffffffffffffffffffffffffffffffffffffffff1673ffffffffffffffffffffffffffffffffffffffff16815260200190815260200160002060008373ffffffffffffffffffffffffffffffffffffffff1673ffffffffffffffffffffffffffffffffffffffff16815260200190815260200160002054905092915050565b60008060008060006060806060806060600660009054906101000a900473ffffffffffffffffffffffffffffffffffffffff16995060085498506009549750600a549650600b54955060038054600181600116156101000203166002900480601f016020809104026020016040519081016040528092919081815260200182805460018160011615610100020316600290048015612c095780601f10612bde57610100808354040283529160200191612c09565b820191906000526020600020905b815481529060010190602001808311612bec57829003601f168201915b5050505050945060048054600181600116156101000203166002900480601f016020809104026020016040519081016040528092919081815260200182805460018160011615610100020316600290048015612ca65780601f10612c7b57610100808354040283529160200191612ca6565b820191906000526020600020905b815481529060010190602001808311612c8957829003601f168201915b50505050509350600e8054600181600116156101000203166002900480601f016020809104026020016040519081016040528092919081815260200182805460018160011615610100020316600290048015612d435780601f10612d1857610100808354040283529160200191612d43565b820191906000526020600020905b815481529060010190602001808311612d2657829003601f168201915b50505050509250600f8054600181600116156101000203166002900480601f016020809104026020016040519081016040528092919081815260200182805460018160011615610100020316600290048015612de05780601f10612db557610100808354040283529160200191612de0565b820191906000526020600020905b815481529060010190602001808311612dc357829003601f168201915b5050505050915060108054600181600116156101000203166002900480601f016020809104026020016040519081016040528092919081815260200182805460018160011615610100020316600290048015612e7d5780601f10612e5257610100808354040283529160200191612e7d565b820191906000526020600020905b815481529060010190602001808311612e6057829003601f168201915b5050505050905090919293949596979899565b60606007805480602002602001604051908101604052809291908181526020018280548015612f1457602002820191906000526020600020905b8160009054906101000a900473ffffffffffffffffffffffffffffffffffffffff1673ffffffffffffffffffffffffffffffffffffffff1681526020019060010190808311612eca575b5050505050905090565b6000828211151515612f2c57fe5b818303905092915050565b60008183019050828110151515612f4a57fe5b80905092915050565b600080831415612f665760009050612f85565b8183029050818382811515612f7757fe5b04141515612f8157fe5b8090505b92915050565b828054600181600116156101000203166002900490600052602060002090601f016020900481019282601f10612fcc57805160ff1916838001178555612ffa565b82800160010185558215612ffa579182015b82811115612ff9578251825591602001919060010190612fde565b5b509050613007919061300b565b5090565b61302d91905b80821115613029576000816000905550600101613011565b5090565b905600a165627a7a7230582041bc04f11203a16a84486888f4b41fe444dc2c19a155fce511f208930149819a0029a165627a7a72305820e2e1860310b2a2326cd00cfbd4abb24de8e76867b87ccd1f00739bff61016ff40029",
  "source": "pragma solidity ^0.4.24;\n\nimport \"openzeppelin-solidity/contracts/math/SafeMath.sol\";\nimport {HeartBankCoinInterface as Kiitos} from \"./HeartBankCoinInterface.sol\";\nimport {BoxOfficeMovie as Movie} from \"./BoxOfficeMovie.sol\";\n\n/** @title Box Office factory that creates ERC20 movie tickets */\ncontract BoxOffice {\n    \n    using SafeMath for uint;\n    using SafeMath for uint8;\n    \n    address public admin;\n    bool private emergency;\n    \n    Kiitos public kiitos;\n    uint public heartbank;\n    uint public charity;\n    uint public listingFee;\n    uint8 public withdrawFee;\n    \n    address[] public films;\n    \n    event FilmCreated(\n        address movie,\n        uint salesEndDate,\n        uint availableTickets,\n        uint price,\n        uint ticketSupply, \n        string movieName, \n        string ticketSymbol,\n        string logline,\n        string poster,\n        string trailer\n    );\n    \n    event TicketsBought(\n        address movie, \n        address buyer,\n        uint price,\n        uint quantity\n    );\n    \n    event ExcessPaid(\n        uint indexed date,\n        address indexed movie,\n        address indexed buyer,\n        uint excess\n    );\n    \n    event FundWithdrawn(\n        uint indexed date,\n        address indexed movie, \n        address recipient, \n        uint amount, \n        string expense\n    );\n    \n    event CharityDonated(\n        uint indexed date,\n        address indexed recipient, \n        uint amount\n    );\n    \n    event ExcessReturned(\n        address recipient, \n        uint amount\n    );\n    \n    event FeesUpdated(\n        uint listingFee,\n        uint withdrawFee\n    );\n    \n    event FallbackTriggered(\n        uint indexed date,\n        address indexed sender,\n        uint value\n    );\n    \n    modifier onlyAdmin {\n        require(msg.sender == admin);\n        _;\n    }\n    \n    modifier onlyFilmmaker(address movie) {\n        require(msg.sender == Movie(movie).filmmaker());\n        _;\n    }\n    \n    modifier chargeListingFee {\n        require(kiitos.balanceOf(msg.sender) >= listingFee);\n        kiitos.transferToAdmin(msg.sender, listingFee);\n        _;\n    }\n    \n    modifier chargeWithdrawFee(uint amount) {\n        uint fee = withdrawFee.mul(amount).div(100);\n        heartbank = heartbank.add(fee);\n        charity = charity.add(fee);\n        _;\n    }\n    \n    modifier stopInEmergency { \n        require(!emergency); \n        _; \n    }\n    \n    modifier onlyInEmergency { \n        require(emergency); \n        _;\n    }\n    \n    /** @dev Instantiates a Box Office factory with initial values\n     * @param token Contract address of the HeartBank coin called Kiitos\n     */\n    constructor(address token) public {\n        kiitos = Kiitos(token);\n        admin = msg.sender;\n        emergency = false;\n        \n        heartbank = 0;\n        charity = 0;\n        listingFee = 2;\n        withdrawFee = 1;\n    }\n    \n    /** @dev Catches payment mistakes for admin to refund */\n    function() public payable {\n        emit FallbackTriggered(now, msg.sender, msg.value);\n    }\n    \n    /** @dev Creates ERC20 token per movie \n     * @param salesEndDate End date of ticket sales\n     * @param availableTickets Quantity of tickets available during sales period\n     * @param price Price of each ticket\n     * @param ticketSupply Total supply of tickets \n     * @param movieName Title of movie\n     * @param ticketSymbol Token symbol of ticket\n     * @param logline Logline of movie\n     * @param poster IPFS hash of movie poster\n     * @param trailer YouTube id of video trailer\n     * @return Boolean for testing in solidity\n     */\n    function makeFilm(\n        uint salesEndDate,\n        uint availableTickets,\n        uint price,\n        uint ticketSupply, \n        string movieName, \n        string ticketSymbol,\n        string logline,\n        string poster,\n        string trailer\n    ) \n        public \n        stopInEmergency\n        chargeListingFee\n        returns (bool)\n    {\n        require(salesEndDate > now);\n        require(availableTickets <= ticketSupply);\n        require(price > 0);\n        require(ticketSupply > 0);\n        require(bytes(movieName).length > 0);\n        require(bytes(ticketSymbol).length > 0);\n        require(bytes(logline).length > 0);\n        require(bytes(poster).length > 0);\n        require(bytes(trailer).length > 0);\n        \n        Movie film = new Movie(msg.sender, salesEndDate, availableTickets, price, ticketSupply, movieName, ticketSymbol, logline, poster, trailer);\n        films.push(film);\n        \n        emit FilmCreated(\n            film,\n            salesEndDate,\n            availableTickets,\n            price,\n            ticketSupply,\n            movieName,\n            ticketSymbol,\n            logline,\n            poster,\n            trailer    \n        );\n        return true;\n    }\n    \n    /** @dev Purchases movie tickets\n     * @param movie Address of movie token\n     * @param quantity Number of tikcets to purchase\n     * @return Boolean for testing in solidity \n     */\n    function buyTickets(address movie, uint quantity) \n        public \n        payable\n        stopInEmergency\n        returns (bool)\n    {\n        require(quantity > 0);\n        Movie film = Movie(movie);\n        uint price = film.price();\n        \n        // only during sales period\n        require(now < film.salesEndDate());\n        \n        // check available tickets\n        require(quantity <= film.availableTickets());\n        \n        // check payment amount\n        require(msg.value >= quantity.mul(price));\n        \n        // check excess payment\n        uint excess = msg.value.sub(quantity.mul(price));\n        if (excess > 0) emit ExcessPaid(now, movie, msg.sender, excess);\n        \n        film.buyTickets(msg.sender, quantity);\n        emit TicketsBought(movie, msg.sender, price, quantity);\n        return true;\n    }\n    \n    /** @dev Withdraws from fund to pay expense\n     * @param movie Address of movie token\n     * @param recipient Address of recipient to be paid\n     * @param amount Amount in wei to pay\n     * @param expense Description of expense\n     * @return Boolean for testing in solidity\n     */\n    function withdrawFund(address movie, address recipient, uint amount, string expense) \n        public \n        stopInEmergency\n        onlyFilmmaker(movie)\n        chargeWithdrawFee(amount)\n        returns (bool)\n    {\n        require(recipient != address(0));\n        require(amount > 0);\n        require(bytes(expense).length > 0);\n        Movie(movie).withdrawFund(amount.add(withdrawFee.mul(amount).div(100)));\n        \n        emit FundWithdrawn(now, movie, recipient, amount, expense);\n        recipient.transfer(amount);\n        return true;\n    }\n    \n    /** @dev Returns array of movie token addresses\n     * @return Movie token addresses\n     */\n    function getFilms() public view returns (address[]) {\n        return films;\n    }\n    \n    /** @dev Lets admin update listing fee and withdraw fee\n     * @param listing Listing fee in Kiitos for creating a movie token\n     * @param withdraw Fee as percentage of amount for withdrawing from fund\n     * @return Boolean for testing in solidity\n     */\n    function updateFees(uint listing, uint8 withdraw)\n        public\n        stopInEmergency\n        onlyAdmin\n        returns (bool)\n    {\n        listingFee = listing;\n        withdrawFee = withdraw;\n        emit FeesUpdated(listingFee, withdrawFee);\n        return true;\n    }\n    \n    /** @dev Gives admin the ability to donate widthdraw fees to any charity\n     * @param recipient Address of charity\n     * @param amount Amount in wei to donate\n     * @return Boolean for testing in solidity\n     */\n    function donateToCharity(address recipient, uint amount) public onlyAdmin returns (bool) {\n        require(amount <= heartbank);\n        heartbank = heartbank.sub(amount);\n        emit CharityDonated(now, recipient, amount);\n        recipient.transfer(amount);\n        return true;\n    }\n    \n    /** @dev Gives admin the ability to return payment in excess or mistake \n     * @param recipient Address of recipient to refund\n     * @param amount Amount in wei to refund \n     * @return Boolean for testing in solidity\n     */\n    function returnExcessPayment(address recipient, uint amount) public onlyAdmin returns (bool) {\n        require(amount <= address(this).balance);\n        emit ExcessReturned(recipient, amount);\n        recipient.transfer(amount);\n        return true;\n    }\n    \n    /** @dev Returns stats collected\n     * @return listingFee The listing fee\n     * @return withdrawFee The withdraw fee\n     * @return heartbank Balance of withdraw fees withdrawn for charity \n     * @return charity Total withdraw fees collected\n     */\n    function getBoxOfficeStats() public view returns (uint, uint, uint, uint) {\n        return (listingFee, withdrawFee, heartbank, charity); \n    }\n    \n    /** @dev Lets admin toggle the state of emergency \n     * @return Boolean for testing in solidity\n     */\n    function toggleEmergency() public onlyAdmin returns (bool) {\n        emergency = !emergency;\n        return true;\n    }\n    \n    /** @dev Lets admin destroy this contract and send excess balance to self\n     */\n    function shutDownBoxOffice() public onlyInEmergency onlyAdmin {\n        selfdestruct(admin);\n    }\n    \n}\n\n",
  "sourcePath": "C:\\Users\\aindr\\Downloads\\BoxOffice-master_working\\contracts\\BoxOffice.sol",
  "compiler": {
    "name": "solc",
    "version": "0.4.24+commit.e67f0147.Emscripten.clang"
  },
  "schemaVersion": "2.0.1",
  "updatedAt": "2021-03-30T03:33:26.204Z"
}