{
  "contractName": "Oracle",
  "abi": [
    {
      "constant": true,
      "inputs": [],
      "name": "oracle",
      "outputs": [
        {
          "name": "",
          "type": "address"
        }
      ],
      "payable": false,
      "stateMutability": "view",
      "type": "function"
    },
    {
      "constant": true,
      "inputs": [],
      "name": "owner",
      "outputs": [
        {
          "name": "",
          "type": "address"
        }
      ],
      "payable": false,
      "stateMutability": "view",
      "type": "function"
    },
    {
      "inputs": [
        {
          "name": "oracleStorage",
          "type": "address"
        }
      ],
      "payable": false,
      "stateMutability": "nonpayable",
      "type": "constructor"
    },
    {
      "anonymous": false,
      "inputs": [],
      "name": "GetPrice",
      "type": "event"
    },
    {
      "anonymous": false,
      "inputs": [
        {
          "indexed": false,
          "name": "price",
          "type": "uint256"
        }
      ],
      "name": "PriceUpdated",
      "type": "event"
    },
    {
      "constant": false,
      "inputs": [],
      "name": "updatePrice",
      "outputs": [
        {
          "name": "",
          "type": "bool"
        }
      ],
      "payable": false,
      "stateMutability": "nonpayable",
      "type": "function"
    },
    {
      "constant": false,
      "inputs": [
        {
          "name": "price",
          "type": "uint256"
        }
      ],
      "name": "setPrice",
      "outputs": [
        {
          "name": "",
          "type": "bool"
        }
      ],
      "payable": false,
      "stateMutability": "nonpayable",
      "type": "function"
    },
    {
      "constant": true,
      "inputs": [],
      "name": "usdPriceOfEth",
      "outputs": [
        {
          "name": "",
          "type": "uint256"
        }
      ],
      "payable": false,
      "stateMutability": "view",
      "type": "function"
    },
    {
      "constant": true,
      "inputs": [
        {
          "name": "amountInWei",
          "type": "uint256"
        }
      ],
      "name": "convertToUsd",
      "outputs": [
        {
          "name": "",
          "type": "uint256"
        }
      ],
      "payable": false,
      "stateMutability": "view",
      "type": "function"
    },
    {
      "constant": false,
      "inputs": [],
      "name": "kill",
      "outputs": [],
      "payable": false,
      "stateMutability": "nonpayable",
      "type": "function"
    }
  ],
  "bytecode": "0x608060405234801561001057600080fd5b5060405160208061077883398101806040528101908080519060200190929190505050336000806101000a81548173ffffffffffffffffffffffffffffffffffffffff021916908373ffffffffffffffffffffffffffffffffffffffff16021790555080600160006101000a81548173ffffffffffffffffffffffffffffffffffffffff021916908373ffffffffffffffffffffffffffffffffffffffff160217905550506106b4806100c46000396000f300608060405260043610610083576000357c0100000000000000000000000000000000000000000000000000000000900463ffffffff16806341c0e1b514610088578063673a7e281461009f5780637dc0d1d0146100ce5780638c3df45e146101255780638da5cb5b1461015057806391b7f5ed146101a7578063dd8c3ce0146101ec575b600080fd5b34801561009457600080fd5b5061009d61022d565b005b3480156100ab57600080fd5b506100b46102c2565b604051808215151515815260200191505060405180910390f35b3480156100da57600080fd5b506100e3610352565b604051808273ffffffffffffffffffffffffffffffffffffffff1673ffffffffffffffffffffffffffffffffffffffff16815260200191505060405180910390f35b34801561013157600080fd5b5061013a610378565b6040518082815260200191505060405180910390f35b34801561015c57600080fd5b5061016561048b565b604051808273ffffffffffffffffffffffffffffffffffffffff1673ffffffffffffffffffffffffffffffffffffffff16815260200191505060405180910390f35b3480156101b357600080fd5b506101d2600480360381019080803590602001909291905050506104b0565b604051808215151515815260200191505060405180910390f35b3480156101f857600080fd5b5061021760048036038101908080359060200190929190505050610662565b6040518082815260200191505060405180910390f35b6000809054906101000a900473ffffffffffffffffffffffffffffffffffffffff1673ffffffffffffffffffffffffffffffffffffffff163373ffffffffffffffffffffffffffffffffffffffff1614151561028857600080fd5b6000809054906101000a900473ffffffffffffffffffffffffffffffffffffffff1673ffffffffffffffffffffffffffffffffffffffff16ff5b60008060009054906101000a900473ffffffffffffffffffffffffffffffffffffffff1673ffffffffffffffffffffffffffffffffffffffff163373ffffffffffffffffffffffffffffffffffffffff1614151561031f57600080fd5b7f6d90164ec1a7e597472bc6f040adfa0b8c8550fe9320f4077cc15d7540b08d6d60405160405180910390a16001905090565b600160009054906101000a900473ffffffffffffffffffffffffffffffffffffffff1681565b6000600160009054906101000a900473ffffffffffffffffffffffffffffffffffffffff1673ffffffffffffffffffffffffffffffffffffffff1673__OracleLibrary_________________________63a7caef9390916040518263ffffffff167c0100000000000000000000000000000000000000000000000000000000028152600401808273ffffffffffffffffffffffffffffffffffffffff1673ffffffffffffffffffffffffffffffffffffffff16815260200191505060206040518083038186803b15801561044b57600080fd5b505af415801561045f573d6000803e3d6000fd5b505050506040513d602081101561047557600080fd5b8101908080519060200190929190505050905090565b6000809054906101000a900473ffffffffffffffffffffffffffffffffffffffff1681565b60008060009054906101000a900473ffffffffffffffffffffffffffffffffffffffff1673ffffffffffffffffffffffffffffffffffffffff163373ffffffffffffffffffffffffffffffffffffffff1614151561050d57600080fd5b600160009054906101000a900473ffffffffffffffffffffffffffffffffffffffff1673ffffffffffffffffffffffffffffffffffffffff1673__OracleLibrary_________________________6321b7960c9091846040518363ffffffff167c0100000000000000000000000000000000000000000000000000000000028152600401808373ffffffffffffffffffffffffffffffffffffffff1673ffffffffffffffffffffffffffffffffffffffff1681526020018281526020019250505060206040518083038186803b1580156105e657600080fd5b505af41580156105fa573d6000803e3d6000fd5b505050506040513d602081101561061057600080fd5b8101908080519060200190929190505050507f66cbca4f3c64fecf1dcb9ce094abcf7f68c3450a1d4e3a8e917dd621edb4ebe0826040518082815260200191505060405180910390a160019050919050565b6000670de0b6b3a764000082610676610378565b0281151561068057fe5b0490509190505600a165627a7a72305820f9b635858f883e41cd740a677374fd9cb3e5dc382fa60777688ccc5fd0f47dd70029",
  "source": "pragma solidity ^0.4.24;\n\nimport {OracleLibrary as Library} from \"./OracleLibrary.sol\";\n\ncontract Oracle {\n    \n    using Library for address;\n    \n    address public owner;\n    address public oracle;\n    \n    event GetPrice();\n    event PriceUpdated(uint price);\n    \n    modifier onlyOwner {\n        require(msg.sender == owner);\n        _;\n    }\n    \n    constructor(address oracleStorage) public {\n        owner = msg.sender;\n        oracle = oracleStorage;\n    }\n    \n    function updatePrice() public onlyOwner returns (bool) {\n        emit GetPrice();\n        return true;\n    }\n    \n    function setPrice(uint price) public onlyOwner returns (bool) {\n        oracle.usdPriceOfEth(price);\n        emit PriceUpdated(price);\n        return true;\n    }\n    \n    function usdPriceOfEth() public view returns (uint) {\n        return oracle.usdPriceOfEth();\n    }\n    \n    function convertToUsd(uint amountInWei) public view returns (uint) {\n        return usdPriceOfEth() * amountInWei / 1 ether;\n    }\n    \n    function kill() public onlyOwner {\n        selfdestruct(owner);\n    }\n    \n}",
  "sourcePath": "C:\\Users\\aindr\\Downloads\\BoxOffice-master_working\\contracts\\Oracle.sol",
  "compiler": {
    "name": "solc",
    "version": "0.4.24+commit.e67f0147.Emscripten.clang"
  },
  "schemaVersion": "2.0.1",
  "updatedAt": "2021-03-30T03:33:26.783Z"
}